:100000000C945D000C9495050C946E050C94850081
:100010000C9485000C9485000C9485000C9485004C
:100020000C9485000C9485000C9485000C9485003C
:100030000C9485000C9485000C9485000C9485002C
:100040000C9424050C9485000C94E2050C94BC05DA
:100050000C9485000C9485000C9485000C9485000C
:100060000C9405040C948500000000002400270077
:100070002A0000000000250028002B0004040404CE
:100080000404040402020202020203030303030342
:10009000010204081020408001020408102001021F
:1000A00004081020000000080002010000030407FB
:1000B0000000000000000000140611241FBECFEF56
:1000C000D8E0DEBFCDBF11E0A0E0B1E0E0EBF1E1B0
:1000D00002C005900D92A434B107D9F722E0A4E440
:1000E000B1E001C01D92AA3BB207E1F710E0CDE5F7
:1000F000D0E004C02197FE010E94D008CC35D10782
:10010000C9F70E945C060C94D6080C94000085ED9B
:100110008093BC008091BC0084FDFCCF1092DF0175
:1001200008952091B901260F3327331F213231055D
:10013000ECF42091DF01FC0190E080E0243069F0D4
:1001400082E00895A091B9012191AC0149565E4F1A
:10015000A40FB52FB11D2C930196861798F38091AB
:10016000B901680F6093B90180E0089581E00895B6
:10017000089508950895E091940180919301E817FE
:1001800030F4F0E0ED58FE4F808190E008958FEF5D
:100190009FEF089590919401809193012FEF3FEF8D
:1001A000981748F4E92FF0E0ED58FE4F208130E039
:1001B0009F5F90939401C90108958091930190915C
:1001C0009401891B990B0895CF92DF92EF92FF92D1
:1001D0000F931F93CF93DF937C01CB018A01209172
:1001E0007201222389F0EB016B01C40ED51ECC15E0
:1001F000DD0569F06991D701ED91FC910190F081E5
:10020000E02DC7010995F3CF642F0E949100C8012A
:10021000DF91CF911F910F91FF90EF90DF90CF90E2
:100220000895CF93DF931F92CDB7DEB769832091F6
:1002300072012223F9F020919501203258F021E03B
:1002400030E0FC013383228390E080E00F90DF9167
:10025000CF91089580919601E82FF0E0EE5AFE4F7D
:10026000998190838F5F809396018093950181E0BF
:1002700090E0ECCF61E0CE0101960E949100F7CFB3
:1002800090E0FC01EC55FF4F2491FC01E057FF4F3B
:100290003491FC01E458FF4FE491EE23C9F022238E
:1002A00039F0233001F1A8F4213019F1223029F17D
:1002B000F0E0EE0FFF1FEE58FF4FA591B4918FB7FE
:1002C000F894EC91611126C030953E233C938FBF8A
:1002D00008952730A9F02830C9F0243049F78091DB
:1002E00080008F7D03C0809180008F778093800095
:1002F000DFCF84B58F7784BDDBCF84B58F7DFBCF17
:100300008091B0008F778093B000D2CF8091B00001
:100310008F7DF9CF3E2BDACFCF93DF9390E0FC01B6
:10032000E057FF4F249184589F4FFC01849188230C
:10033000C9F090E0880F991FFC01E859FF4FA59183
:10034000B491FC01EE58FF4FC591D49161110DC0DD
:100350009FB7F8948C91209582238C9388812823D1
:1003600028839FBFDF91CF910895623051F49FB7EA
:10037000F8943C91822F809583238C93E8812E2BD7
:10038000EFCF8FB7F894EC912E2B2C938FBFEACF41
:100390003FB7F89480914E0190914F01A091500188
:1003A000B091510126B5A89B05C02F3F19F00196C9
:1003B000A11DB11D3FBFBA2FA92F982F8827BC01BF
:1003C000CD01620F711D811D911D42E0660F771FE7
:1003D000881F991F4A95D1F708958F929F92AF92E7
:1003E000BF92CF92DF92EF92FF924B015C010E948D
:1003F000C8016B017C010E94C8016C197D098E093E
:100400009F09683E734081059105A8F321E0821A97
:100410009108A108B10888EEC80E83E0D81EE11C3F
:10042000F11C81149104A104B10429F7FF90EF900D
:10043000DF90CF90BF90AF909F908F9008958230C3
:10044000E8F4E82FF0E0EE0FFF1FE050FF4F71835C
:100450006083813041F0809169008C7F482B40930C
:100460006900E89A089580916900837F440F551FC1
:10047000440F551F482B40936900E99A0895089549
:10048000AF92BF92CF92DF92EF92FF920F931F93A2
:10049000CF93DF936C017B018B01040F151FEB01E0
:1004A0005E01AE18BF08C017D10759F06991D60197
:1004B000ED91FC910190F081E02DC6010995892B09
:1004C00079F7C501DF91CF911F910F91FF90EF90C8
:1004D000DF90CF90BF90AF900895809145019091AB
:1004E0004601019690934601809345010895089531
:1004F000FC01538D448D252F30E0842F90E0821B2A
:10050000930B541710F0CF96089501970895FC01AE
:10051000918D828D981761F0A28DAE0FBF2FB11D06
:100520005D968C91928D9F5F9F73928F90E008955E
:100530008FEF9FEF0895FC01918D828D981731F018
:10054000828DE80FF11D858D90E008958FEF9FEF6C
:100550000895FC01918D228D892F90E0805C9F4F42
:10056000821B91098F739927089581E192E00E947F
:10057000A90221E0892B09F420E0822F089580E070
:1005800090E0892B29F00E94B50281110C940000A3
:100590000895FC01A48DA80FB92FB11DA35ABF4F18
:1005A0002C91848D90E001968F739927848FA68972
:1005B000B7892C93A089B1898C91837080648C93C6
:1005C000938D848D981306C00288F389E02D808175
:1005D0008F7D80830895EF92FF920F931F93CF93A7
:1005E000DF93EC0181E0888F9B8D8C8D98131AC06E
:1005F000E889F989808185FF15C09FB7F894EE8955
:10060000FF896083E889F9898081837080648083B1
:100610009FBF81E090E0DF91CF911F910F91FF90FC
:10062000EF900895F62E0B8D10E00F5F1F4F0F73A4
:100630001127E02E8C8D8E110CC00FB607FCFACF5F
:10064000E889F989808185FFF5CFCE010E94C90232
:10065000F1CFEB8DEC0FFD2FF11DE35AFF4FF08230
:100660009FB7F8940B8FEA89FB8980818062CFCF96
:10067000CF93DF93EC01888D8823B9F0AA89BB89D9
:10068000E889F9898C9185FD03C0808186FD0DC0C4
:100690000FB607FCF7CF8C9185FFF2CF808185FFE5
:1006A000EDCFCE010E94C902E9CFDF91CF9108952D
:1006B000CF93FC01C48121E020937201C0934401D7
:1006C00010929601109295018385682B85E092E047
:1006D0000E94110190919501913208F03FC08091E4
:1006E000DF018111FCCF82E08093DF0181E0809304
:1006F000E1018FEF8093DE011092030290930202DA
:10070000A2E5B1E0E2EEF1E080E098132FC0109294
:10071000040280910402CC0FC82BC0930402809184
:10072000E001813039F51092E0018091040280935C
:10073000BB008091BC0083FDF8CF85EC8093BC00AA
:100740008091DF018230E1F38091DE018F3F31F053
:100750008091DE01803211F08091DE0110929601CD
:100760001092950110927201CF9108952D912193CD
:100770008F5FCBCF85EEE2CF089590E080E00895C3
:10078000FB0101900020E9F73197AF01461B570BA1
:10079000DC01ED91FC910280F381E02D09940F932F
:1007A0001F93CF938C01C62F0E9458036C2F646057
:1007B000C8010E9458036C2F6B7FC8010E94580328
:1007C00083EC90E00197F1F7CF911F910F9108957D
:1007D0000F931F93CF93DF938C01D62FC42F607F8D
:1007E000642B0E94CF0380E1D89FB00111246C2BB1
:1007F000C801DF91CF911F910F910C94CF0341E07D
:100800000E94E80381E090E008951F920F920FB6D6
:100810000F9211242F933F934F935F936F937F9386
:100820008F939F93AF93BF93EF93FF938091B90002
:10083000887F803609F44AC0F0F5883209F4A7C0F1
:1008400018F5803109F49BC0B8F4882309F4F9C085
:10085000883009F494C0FF91EF91BF91AF919F91BF
:100860008F917F916F915F914F913F912F910F9059
:100870000FBE0F901F901895883109F488C0803200
:1008800051F78093DE0114C0803409F49DC040F418
:100890008033B9F38833F9F68093DE0185ECB0C07C
:1008A000803509F485C0883509F496C0883499F6F6
:1008B0000E948700D0CF883909F48CC038F588377A
:1008C00029F050F4883611F0803729F683E08093C0
:1008D000DF011092DD0157C0883809F47BC08039F0
:1008E00019F0803809F0B7CF8091DD01803208F02F
:1008F00071C0E091DD0181E08E0F8093DD01809178
:10090000BB00F0E0E354FE4F80833DC0803B39F0F4
:10091000E0F4803A09F479C0883A09F09CCF84E089
:100920008093DF011092BA011092B901E091B701F2
:10093000F091B80109958091B90181110FC081E052
:100940008093B9011092970109C0803C09F4A6CFA9
:10095000883C09F4A3CF883B09F07DCFE091BA0130
:1009600081E08E0F8093BA01F0E0E956FE4F80815E
:100970008093BB009091BA018091B90129C0809108
:1009800004028093BB0085EC8093BC0064CF9091FF
:10099000030280910202981758F5E091030281E06A
:1009A0008E0F80930302F0E0EE51FE4F8081E9CF7D
:1009B000E091030281E08E0F809303028091BB00DF
:1009C000F0E0EE51FE4F808390910302809102028D
:1009D0009817C8F285E8D8CFE091030281E08E0F26
:1009E000809303028091BB00F0E0EE51FE4F8083C4
:1009F0008091E10181115CCF81E08093E00184EA84
:100A00008093BC001092DF0126CF85EC8093BC0060
:100A10001092DF018091DD01803230F4E091DD0140
:100A2000F0E0E354FE4F10826091DD0170E0E09150
:100A3000BB01F091BC018DEB91E009951092DD01B5
:100A40000ACF1092DE0134CF1F920F920FB60F9291
:100A500011242F933F938F939F93AF93BF938091D4
:100A60004A0190914B01A0914C01B0914D01309100
:100A7000490123E0230F2D3758F50196A11DB11D23
:100A80002093490180934A0190934B01A0934C011C
:100A9000B0934D0180914E0190914F01A091500172
:100AA000B09151010196A11DB11D80934E0190930B
:100AB0004F01A0935001B0935101BF91AF919F910D
:100AC0008F913F912F910F900FBE0F901F9018950F
:100AD00026E8230F0296A11DB11DD2CF1F920F92BF
:100AE0000FB60F9211242F933F934F935F936F9301
:100AF0007F938F939F93AF93BF93EF93FF93E09177
:100B00000201F09103010995FF91EF91BF91AF911F
:100B10009F918F917F916F915F914F913F912F9115
:100B20000F900FBE0F901F9018951F920F920FB647
:100B30000F9211242F933F934F935F936F937F9363
:100B40008F939F93AF93BF93EF93FF93E091000137
:100B5000F09101010995FF91EF91BF91AF919F91A4
:100B60008F917F916F915F914F913F912F910F9056
:100B70000FBE0F901F9018951F920F920FB60F92F5
:100B800011242F933F934F935F936F937F938F9392
:100B90009F93AF93BF93EF93FF9381E192E00E9405
:100BA000C902FF91EF91BF91AF919F918F917F917A
:100BB0006F915F914F913F912F910F900FBE0F90CA
:100BC0001F9018951F920F920FB60F9211242F931A
:100BD0008F939F93EF93FF93E0912102F091220274
:100BE0008081E0912702F091280282FD1BC0908154
:100BF00080912A028F5F8F7320912B02821741F020
:100C0000E0912A02F0E0EF5EFD4F958F80932A027B
:100C1000FF91EF919F918F912F910F900FBE0F90A9
:100C20001F9018958081F4CFE5E0F2E013821282E4
:100C300088EE93E0A0E0B0E084839583A683B78339
:100C400028E031E031832083E1E1F2E01382128277
:100C500084839583A683B7838AE191E0918380831F
:100C600085EC90E09587848784EC90E09787868771
:100C700080EC90E0918B808B81EC90E0938B828B69
:100C800082EC90E0958B848B86EC90E0978B868B42
:100C9000118E128E138E148EEEEAF2E013821282FF
:100CA0008CE291E09183808387E2848380E1818775
:100CB00082E0828713860895CF93DF93CDB7DEB7A6
:100CC000A1970FB6F894DEBF0FBECDBF789484B560
:100CD000826084BD84B5816084BD85B5826085BD38
:100CE00085B5816085BD80916E00816080936E00C6
:100CF00010928100809181008260809381008091B8
:100D00008100816080938100809180008160809368
:100D100080008091B10084608093B1008091B00028
:100D200081608093B00080917A00846080937A0023
:100D300080917A00826080937A0080917A0081604D
:100D400080937A0080917A00806880937A00109274
:100D5000C100E0912102F091220282E08083E091C3
:100D60001D02F0911E021082E0911F02F0912002FC
:100D70008FEC808310922902E0912502F0912602E7
:100D800086E08083E0912302F091240280818061DB
:100D90008083E0912302F091240280818860808327
:100DA000E0912302F0912402808180688083E091A9
:100DB0002302F091240280818F7D80831092940120
:100DC0001092930110929601109295011092DF01FA
:100DD00081E08093E1011092E00161E082E10E94F4
:100DE000400161E083E10E9440018091B9008E7F63
:100DF0008093B9008091B9008D7F8093B90088E419
:100E00008093B80085E48093BC0088EB90E09093D9
:100E1000B8018093B70189EB90E09093BC01809377
:100E2000BB011092B3028091B802823018F098E0B2
:100E30009093B3028093B60262E370E080E090E0AA
:100E40000E94ED016091B9028EEA92E00E9458037F
:100E500068EE73E080E090E00E94ED0160E38EEACE
:100E600092E00E94CF030BE416E4C8010197F1F76A
:100E700060E38EEA92E00E94CF03C8010197F1F788
:100E800060E38EEA92E00E94CF0383E592E001974F
:100E9000F1F760E28EEA92E00E94CF036091B30224
:100EA000606240E08EEA92E00E94E80384E0809372
:100EB000B40240E06CE08EEA92E00E94E80340E079
:100EC00061E08EEA92E00E94E8030BE31FE1C801B3
:100ED0000197F1F782E08093B50240E066E08EEA88
:100EE00092E00E94E80340E062E08EEA92E00E9415
:100EF000E803C8010197F1F788E08093B90260E048
:100F00008EEA92E00E94580360E083E00E948C0128
:100F100061E089E00E948C0162E082E00E948C0125
:100F200062E083E00E948C0143E050E06DE672E0F5
:100F300081E00E941F0242E050E067E772E080E03B
:100F40000E941F0293E4E92E2DEA222E20E0322E89
:100F50003CE3F32E4AE0442E512C612C712C50E0DE
:100F6000C52E50E0D52EE0927C0080917A008064FE
:100F700080937A0080917A0086FDFCCF8091780082
:100F800000917900102F082F17FF02C00D5F1F4F2F
:100F900015950795159507951093480100934701FE
:100FA00061E089E00E948C010115110509F07AC009
:100FB00060E089E00E94400168EC70E080E090E031
:100FC0000E94ED0140E060E88EEA92E00E94E803B2
:100FD00060914701709148016C5C7E4F8EEA92E00F
:100FE0000E94C0038091450190914601F89EB00196
:100FF000F99E700D11241092460110924501645C17
:101000007E4F8EEA92E00E94C0032091450130910C
:101010004601F29EC001F39E900D112410924601EC
:10102000109245014C01092E000CAA08BB0897FF3D
:101030007FC06DE281E192E00E94EB02222733271C
:10104000A901281939094A095B0919A28E010F5D06
:101050001F4FCA01B901A30192010E94AE08605D51
:10106000F80162938F01211531054105510589F77A
:101070000115110529F0B80181E192E00E94C00339
:1010800061E471E081E192E00E94C003C114D104E7
:1010900009F469CF0E94B502882309F464CF0E9445
:1010A000000061CF0F3F110511F461E082CFF10123
:1010B0008491833019F140F48130B1F08230C9F06D
:1010C0000038110594F774CF873011F1883041F161
:1010D0008430B1F78091800080628093800010930B
:1010E0008B0000938A0068CF84B5806884BD07BDFB
:1010F00063CF84B5806284BD08BD5ECF80918000DF
:10110000806880938000109389000093880054CFFA
:101110008091B00080688093B0000093B3004CCF02
:101120008091B00080628093B0000093B40044CFFF
:10113000A501940119A28E010F5D1F4FCA01B901CB
:10114000A30192010E94AE08605DF80162938F01D5
:10115000211531054105510589F78ACFA1E21A2EE3
:10116000AA1BBB1BFD010DC0AA1FBB1FEE1FFF1F4B
:10117000A217B307E407F50720F0A21BB30BE40B9B
:10118000F50B661F771F881F991F1A9469F76095E2
:101190007095809590959B01AC01BD01CF0108959C
:1011A000EE0FFF1F0590F491E02D0994F894FFCF06
:1011B0003F023F02000000001101E400BD03BA003D
:1011C000DD00CA00BB0000000000EB024002780214
:1011D0003803A90287029B0200000000FF034002BF
:1011E000BD03BC0373657474696E670072706D3AF9
:0411F000000D0A00E4
:00000001FF
