:100000000C945D000C9474050C944D050C948500C3
:100010000C9485000C9485000C9485000C9485004C
:100020000C9485000C9485000C9485000C9485003C
:100030000C9485000C9485000C9485000C9485002C
:100040000C9403050C9485000C94C1050C949B053D
:100050000C9485000C9485000C9485000C9485000C
:100060000C94E4030C948500000000002400270099
:100070002A0000000000250028002B0004040404CE
:100080000404040402020202020203030303030342
:10009000010204081020408001020408102001021F
:1000A00004081020000000080002010000030407FB
:1000B0000000000000000000F30511241FBECFEF78
:1000C000D8E0DEBFCDBF11E0A0E0B1E0E8E9F2E1A9
:1000D00002C005900D92A034B107D9F722E0A0E448
:1000E000B1E001C01D92A23CB207E1F710E0CDE5FE
:1000F000D0E004C02197FE010E942A09CC35D10727
:10010000C9F70E943B060C944A090C94000085ED47
:100110008093BC008091BC0084FDFCCF1092E7016D
:1001200008952091C101260F3327331F2132310555
:10013000ECF42091E701FC0190E080E0243069F0CC
:1001400082E00895A091C1012191AC0141565E4F1A
:10015000A40FB52FB11D2C930196861798F38091AB
:10016000C101680F6093C10180E0089581E00895A6
:10017000089508950895E0919C0180919B01E817EE
:1001800030F4F0E0E558FE4F808190E008958FEF65
:100190009FEF089590919C0180919B012FEF3FEF7D
:1001A000981748F4E92FF0E0E558FE4F208130E041
:1001B0009F5F90939C01C901089580919B0190914C
:1001C0009C01891B990B0895CF92DF92EF92FF92C9
:1001D0000F931F93CF93DF937C01CB018A01209172
:1001E0007A01222389F0EB016B01C40ED51ECC15D8
:1001F000DD0569F06991D701ED91FC910190F081E5
:10020000E02DC7010995F3CF642F0E949100C8012A
:10021000DF91CF911F910F91FF90EF90DF90CF90E2
:100220000895CF93DF931F92CDB7DEB769832091F6
:100230007A012223F9F020919D01203258F021E02B
:1002400030E0FC013383228390E080E00F90DF9167
:10025000CF91089580919E01E82FF0E0E65AFE4F7D
:10026000998190838F5F80939E0180939D0181E0AF
:1002700090E0ECCF61E0CE0101960E949100F7CFB3
:1002800090E0FC01EC55FF4F2491FC01E057FF4F3B
:100290003491FC01E458FF4FE491EE23C9F022238E
:1002A00039F0233001F1A8F4213019F1223029F17D
:1002B000F0E0EE0FFF1FEE58FF4FA591B4918FB7FE
:1002C000F894EC91611126C030953E233C938FBF8A
:1002D00008952730A9F02830C9F0243049F78091DB
:1002E00080008F7D03C0809180008F778093800095
:1002F000DFCF84B58F7784BDDBCF84B58F7DFBCF17
:100300008091B0008F778093B000D2CF8091B00001
:100310008F7DF9CF3E2BDACFCF93DF9390E0FC01B6
:10032000E057FF4F249184589F4FFC01849188230C
:10033000C9F090E0880F991FFC01E859FF4FA59183
:10034000B491FC01EE58FF4FC591D49161110DC0DD
:100350009FB7F8948C91209582238C9388812823D1
:1003600028839FBFDF91CF910895623051F49FB7EA
:10037000F8943C91822F809583238C93E8812E2BD7
:10038000EFCF8FB7F894EC912E2B2C938FBFEACF41
:100390003FB7F8948091560190915701A091580170
:1003A000B091590126B5A89B05C02F3F19F00196C1
:1003B000A11DB11D3FBFBA2FA92F982F8827BC01BF
:1003C000CD01620F711D811D911D42E0660F771FE7
:1003D000881F991F4A95D1F708958F929F92AF92E7
:1003E000BF92CF92DF92EF92FF924B015C010E948D
:1003F000C8016B017C010E94C8016C197D098E093E
:100400009F09683E734081059105A8F321E0821A97
:100410009108A108B10888EEC80E83E0D81EE11C3F
:10042000F11C81149104A104B10429F7FF90EF900D
:10043000DF90CF90BF90AF909F908F9008950895D8
:10044000AF92BF92CF92DF92EF92FF920F931F93E2
:10045000CF93DF936C017B018B01040F151FEB0120
:100460005E01AE18BF08C017D10759F06991D601D7
:10047000ED91FC910190F081E02DC6010995892B49
:1004800079F7C501DF91CF911F910F91FF90EF9008
:10049000DF90CF90BF90AF900895809149019091E7
:1004A0004A01019690934A01809349010895FC0105
:1004B000538D448D252F30E0842F90E0821B930BC9
:1004C000541710F0CF96089501970895FC01918D6F
:1004D000828D981761F0A28DAE0FBF2FB11D5D9672
:1004E0008C91928D9F5F9F73928F90E008958FEF14
:1004F0009FEF0895FC01918D828D981731F0828DC8
:10050000E80FF11D858D90E008958FEF9FEF08951E
:10051000FC01918D228D892F90E0805C9F4F821B82
:1005200091098F739927089589E192E00E948802CA
:1005300021E0892B09F420E0822F089580E090E0EB
:10054000892B29F00E94940281110C9400000895D7
:10055000FC01A48DA80FB92FB11DA35ABF4F2C9138
:10056000848D90E001968F739927848FA689B7892F
:100570002C93A089B1898C91837080648C93938D26
:10058000848D981306C00288F389E02D80818F7DC9
:1005900080830895EF92FF920F931F93CF93DF9381
:1005A000EC0181E0888F9B8D8C8D98131AC0E889AF
:1005B000F989808185FF15C09FB7F894EE89FF897E
:1005C0006083E889F98980818370806480839FBF1C
:1005D00081E090E0DF91CF911F910F91FF90EF901C
:1005E0000895F62E0B8D10E00F5F1F4F0F7311272C
:1005F000E02E8C8D8E110CC00FB607FCFACFE88967
:10060000F989808185FFF5CFCE010E94A802F1CF44
:10061000EB8DEC0FFD2FF11DE35AFF4FF0829FB7DA
:10062000F8940B8FEA89FB8980818062CFCFCF93CA
:10063000DF93EC01888D8823B9F0AA89BB89E8890A
:10064000F9898C9185FD03C0808186FD0DC00FB6B0
:1006500007FCF7CF8C9185FFF2CF808185FFEDCF2E
:10066000CE010E94A802E9CFDF91CF910895CF93E8
:10067000FC01C48121E020937A01C09340011092D3
:100680009E0110929D018385682B8DE092E00E946F
:10069000110190919D01913208F03FC08091E701D6
:1006A0008111FCCF82E08093E70181E08093E90132
:1006B0008FEF8093E60110920B0290930A02AAE555
:1006C000B1E0EAEEF1E080E098132FC010920C0246
:1006D00080910C02CC0FC82BC0930C028091E801D2
:1006E000813039F51092E80180910C028093BB00B3
:1006F0008091BC0083FDF8CF85EC8093BC00809195
:10070000E7018230E1F38091E6018F3F31F0809183
:10071000E601803211F08091E60110929E01109264
:100720009D0110927A01CF9108952D9121938F5FB1
:10073000CBCF85EEE2CF089590E080E00895FB01F5
:1007400001900020E9F73197AF01461B570BDC0100
:10075000ED91FC910280F381E02D09940F931F939A
:10076000CF938C01C62F0E9437036C2F6460C801A1
:100770000E9437036C2F6B7FC8010E94370383EC04
:1007800090E00197F1F7CF911F910F9108950F938A
:100790001F93CF93DF938C01D62FC42F607F642BE0
:1007A0000E94AE0380E1D89FB00111246C2BC801D8
:1007B000DF91CF911F910F910C94AE0341E00E9405
:1007C000C70381E090E008951F920F920FB60F9239
:1007D00011242F933F934F935F936F937F938F9346
:1007E0009F93AF93BF93EF93FF938091B900887F5E
:1007F000803609F44AC0F0F5883209F4A7C018F52C
:10080000803109F49BC0B8F4882309F4F9C088301A
:1008100009F494C0FF91EF91BF91AF919F918F9197
:100820007F916F915F914F913F912F910F900FBEEC
:100830000F901F901895883109F488C0803251F7C5
:100840008093E60114C0803409F49DC040F48033E5
:10085000B9F38833F9F68093E60185ECB0C08035B2
:1008600009F485C0883509F496C0883499F60E9449
:100870008700D0CF883909F48CC038F5883729F043
:1008800050F4883611F0803729F683E08093E70131
:100890001092E50157C0883809F47BC0803919F0FF
:1008A000803809F0B7CF8091E501803208F071C03F
:1008B000E091E50181E08E0F8093E5018091BB001E
:1008C000F0E0EB53FE4F80833DC0803B39F0E0F415
:1008D000803A09F479C0883A09F09CCF84E080938B
:1008E000E7011092C2011092C101E091BF01F091A5
:1008F000C00109958091C10181110FC081E08093F1
:10090000C10110929F0109C0803C09F4A6CF883C28
:1009100009F4A3CF883B09F07DCFE091C20181E0CB
:100920008E0F8093C201F0E0E156FE4F80818093EC
:10093000BB009091C2018091C10129C080910C023D
:100940008093BB0085EC8093BC0064CF90910B0238
:1009500080910A02981758F5E0910B0281E08E0F02
:1009600080930B02F0E0E651FE4F8081E9CFE091E9
:100970000B0281E08E0F80930B028091BB00F0E0B0
:10098000E651FE4F808390910B0280910A029817E6
:10099000C8F285E8D8CFE0910B0281E08E0F8093FA
:1009A0000B028091BB00F0E0E651FE4F8083809106
:1009B000E90181115CCF81E08093E80184EA8093B2
:1009C000BC001092E70126CF85EC8093BC0010920A
:1009D000E7018091E501803230F4E091E501F0E03B
:1009E000EB53FE4F10826091E50170E0E091C3018E
:1009F000F091C40185EC91E009951092E5010ACFD0
:100A00001092E60134CF1F920F920FB60F9211246D
:100A10002F933F938F939F93AF93BF9380915201F6
:100A200090915301A0915401B09155013091510121
:100A300023E0230F2D3758F50196A11DB11D2093FA
:100A400051018093520190935301A0935401B093AC
:100A500055018091560190915701A0915801B09194
:100A600059010196A11DB11D809356019093570124
:100A7000A0935801B0935901BF91AF919F918F916D
:100A80003F912F910F900FBE0F901F90189526E861
:100A9000230F0296A11DB11DD2CF1F920F920FB648
:100AA0000F9211242F933F934F935F936F937F93F4
:100AB0008F939F93AF93BF93EF93FF93E0910201C6
:100AC000F09103010995FF91EF91BF91AF919F9133
:100AD0008F917F916F915F914F913F912F910F90E7
:100AE0000FBE0F901F9018951F920F920FB60F9286
:100AF00011242F933F934F935F936F937F938F9323
:100B00009F93AF93BF93EF93FF93E0910001F09118
:100B100001010995FF91EF91BF91AF919F918F9145
:100B20007F916F915F914F913F912F910F900FBEE9
:100B30000F901F9018951F920F920FB60F921124CD
:100B40002F933F934F935F936F937F938F939F93D5
:100B5000AF93BF93EF93FF9389E192E00E94A802C5
:100B6000FF91EF91BF91AF919F918F917F916F9185
:100B70005F914F913F912F910F900FBE0F901F905B
:100B800018951F920F920FB60F9211242F938F93E7
:100B90009F93EF93FF93E0912902F0912A028081C5
:100BA000E0912F02F091300282FD1BC09081809174
:100BB00032028F5F8F7320913302821741F0E091F0
:100BC0003202F0E0E75EFD4F958F80933202FF9195
:100BD000EF919F918F912F910F900FBE0F901F90CB
:100BE00018958081F4CFEDE0F2E01382128288EE56
:100BF00093E0A0E0B0E084839583A683B78328E0E8
:100C000031E031832083E9E1F2E0138212828483B0
:100C10009583A683B7838AE191E09183808385ECF5
:100C200090E09587848784EC90E09787868780ECB6
:100C300090E0918B808B81EC90E0938B828B82ECA7
:100C400090E0958B848B86EC90E0978B868B118E51
:100C5000128E138E148EE6EBF2E0138212828CE277
:100C600091E09183808387E2848380E1818782E0C1
:100C7000828713860895CF93DF93CDB7DEB7A19710
:100C80000FB6F894DEBF0FBECDBF789484B58260F6
:100C900084BD84B5816084BD85B5826085BD85B520
:100CA000816085BD80916E00816080936E0010929E
:100CB0008100809181008260809381008091810019
:100CC00081608093810080918000816080938000AA
:100CD0008091B10084608093B1008091B000816008
:100CE0008093B00080917A00846080937A00809134
:100CF0007A00826080937A0080917A00816080938C
:100D00007A0080917A00806880937A001092C10006
:100D1000E0912902F0912A0282E08083E09125028D
:100D2000F09126021082E0912702F09128028FECC8
:100D3000808310923102E0912D02F0912E0286E024
:100D40008083E0912B02F0912C028081806180836E
:100D5000E0912B02F0912C02808188608083E091E9
:100D60002B02F0912C02808180688083E0912B021D
:100D7000F0912C0280818F7D808310929C011092D3
:100D80009B0110929E0110929D011092E70181E05B
:100D90008093E9011092E80161E082E10E94400144
:100DA00061E083E10E9440018091B9008E7F8093D1
:100DB000B9008091B9008D7F8093B90088E4809359
:100DC000B80085E48093BC0088EB90E09093C0016C
:100DD0008093BF0189EB90E09093C4018093C3019D
:100DE0001092BB028091C002823018F098E090937C
:100DF000BB028093BE0262E370E080E090E00E945C
:100E0000ED016091C10286EB92E00E94370368EE2B
:100E100073E080E090E00E94ED0160E386EB92E0F9
:100E20000E94AE030BE416E4C8010197F1F760E3FA
:100E300086EB92E00E94AE03C8010197F1F760E3F0
:100E400086EB92E00E94AE0383E592E00197F1F712
:100E500060E286EB92E00E94AE036091BB026062AA
:100E600040E086EB92E00E94C70384E08093BC02DE
:100E700040E06CE086EB92E00E94C70340E061E056
:100E800086EB92E00E94C7030BE31FE1C8010197C4
:100E9000F1F782E08093BD0240E066E086EB92E0ED
:100EA0000E94C70340E062E086EB92E00E94C70325
:100EB000C8010197F1F788E08093C10260E086EBFA
:100EC00092E00E9437031092410110924201109269
:100ED0004301109244011092450110924601109274
:100EE00047011092480160E083E00E948C0161E0BC
:100EF00089E00E948C0162E082E00E948C018DE416
:100F000092E09093010180930001809169008360D9
:100F100080936900E89A93E4392E2AE0822E912C7E
:100F2000A12CB12C30E3C32E35E7D32E40E0E42EC4
:100F300040E0F42E30927C0080917A0080648093AF
:100F40007A0080917A0086FDFCCF80917800009134
:100F50007900102F082F17FF02C00D5F1F4F159546
:100F60000795159507951093500100934F0161E087
:100F700089E00E948C010115110509F0BCC060E0F8
:100F800089E00E94400168EC70E080E090E00E94FF
:100F9000ED012FB7F8948091520190915301A091E7
:100FA0005401B09155012FBF80934B0190934C0198
:100FB000A0934D01B0934E0140E060E886EB92E0D3
:100FC0000E94C70360914F01709150016C5C7E4F8D
:100FD00086EB92E00E949F034090490150904A01A5
:100FE000052C000C6608770877FECCC06DE289E11D
:100FF00092E00E94CA0222273327A9012419350949
:101000004609570919A28E010F5D1F4FCA01B90188
:10101000A50194010E94EC08605DF80162938F01C4
:10102000211531054105510589F70115110529F0F3
:10103000B80189E192E00E949F036CE371E089E1CD
:1010400092E00E949F036091490170914A016530CE
:1010500071050CF444C08FB7F894009152011091BF
:10106000530120915401309155018FBF809145016A
:1010700090914601A0914701B0914801081B190BBE
:101080002A0B3B0BC6010E94D808DB01A90198017D
:101090000E940E09609341017093420180934301C5
:1010A000909344012FB7F89480915201909153018D
:1010B000A0915401B09155012FBF809345019093A9
:1010C0004601A0934701B093480110924A01109243
:1010D000490164EF71E080E090E00E94ED01E114CD
:1010E000F10409F427CF0E949402882309F422CF47
:1010F0000E9400001FCF0F3F110511F461E040CFA7
:10110000EDEAF0E08491833019F140F48130B1F0E0
:101110008230C9F0003811058CF731CF873011F1DA
:10112000883041F18430B1F78091800080628093F3
:10113000800010938B0000938A0025CF84B58068CF
:1011400084BD07BD20CF84B5806284BD08BD1BCFA0
:1011500080918000806880938000109389000093C4
:10116000880011CF8091B00080688093B000009318
:10117000B30009CF8091B00080628093B0000093EB
:10118000B40001CFA301920119A28E010F5D1F4F80
:10119000CA01B901A50194010E94EC08605DF80143
:1011A00062938F01211531054105510589F73DCF26
:1011B00097FB072E16F4009407D077FD09D00E9404
:1011C000160907FC05D03EF4909581959F4F089530
:1011D000709561957F4F0895A1E21A2EAA1BBB1B43
:1011E000FD010DC0AA1FBB1FEE1FFF1FA217B307F3
:1011F000E407F50720F0A21BB30BE40BF50B661F09
:10120000771F881F991F1A9469F7609570958095CC
:1012100090959B01AC01BD01CF010895B7FF0C94DF
:1012200030090E943009821B930B0895AA1BBB1B37
:1012300051E107C0AA1FBB1FA617B70710F0A61BD6
:10124000B70B881F991F5A95A9F780959095BC01F7
:10125000CD010895EE0FFF1F0590F491E02D099444
:101260000E943B09A59F900DB49F900DA49F800DF7
:10127000911D11240895A29FB001B39FC001A39FA7
:10128000700D811D1124911DB29F700D811D1124BF
:08129000911D0895F894FFCFB1
:101298001F021F02000000001101E4009C03BA00B5
:1012A800DD00CA00BB0000000000CA02200257028D
:1012B8001703880266027A0200000000DE0320029B
:1012C8009C039B0373657474696E67000D0A0000C4
:00000001FF
